:020000040800F2
:1000000000500020090B0008A50A0008AD0A0008EE
:10001000B50A0008BD0A0008C50A00080000000073
:10002000000000000000000000000000CD0A0008F1
:10003000D90A000800000000E50A0008F10A0008DB
:10004000510B0008510B0008510B0008510B000820
:10005000510B0008510B0008510B0008510B000810
:10006000510B0008510B0008510B0008510B000800
:10007000510B0008510B0008510B0008510B0008F0
:10008000510B0008510B0008510B0008510B0008E0
:10009000510B0008510B0008510B0008510B0008D0
:1000A000510B0008510B0008510B0008510B0008C0
:1000B000510B0008510B0008510B0008510B0008B0
:1000C000510B0008510B0008510B0008510B0008A0
:1000D000510B0008510B0008510B0008510B000890
:1000E000510B0008510B0008510B000800000000E4
:1000F0000000000000000000000000000000000000
:0C01000000000000000000005FF808F1A3
:10010C0010B5054C237833B9044B13B10448AFF345
:10011C0000800123237010BD10000020000000009F
:10012C00A81E000808B5034B1BB103490348AFF3E5
:10013C00008008BD0000000014000020A81E00086C
:10014C0080B500AF00F000FD00F009F800F078F881
:10015C0000F040F800F072FA00F06EF9FCE780B5A0
:10016C0090B000AF07F1180328220021184601F0C7
:10017C0068FE3B1D00221A605A609A60DA601A61B0
:10018C000223BB610123BB621023FB6200237B6350
:10019C0007F11803184600F0F5FF0346002B01D0B9
:1001AC0000F0F6FB0F237B600023BB600023FB6099
:1001BC0000233B6100237B613B1D0021184601F0AD
:1001CC0063FA0346002B01D000F0E2FB00BF40377E
:1001DC00BD4680BD80B500AF174B184A1A60164B50
:1001EC004FF482725A60144B00229A60124B002218
:1001FC00DA60114B00221A610F4B00225A610E4B30
:10020C004FF480229A610C4B0022DA610A4B0022D7
:10021C001A62094B00225A62074B00229A62064B63
:10022C000A22DA62044801F08BFB0346002B01D052
:10023C0000F0AEFB00BF80BD2C0000200038004059
:10024C0080B586B000AF07F1080300221A605A602F
:10025C009A60DA601E4B9B691D4A43F00803936158
:10026C001B4B9B6903F008037B607B68184B9B69F5
:10027C00174A43F004039361154B9B6903F0040385
:10028C003B603B6800224FF4E061124800F061FFD4
:10029C004FF4E063BB600123FB6000233B6102234E
:1002AC007B6107F1080319460A4800F0B7FD4FF4CB
:1002BC007C73BB600023FB6001233B6107F10803E7
:1002CC001946054800F0AAFD00BF1837BD4680BD91
:1002DC000010024000080140000C014080B584B0C1
:1002EC0000AF78600B467B803223FB607B8819461D
:1002FC00786800F017FF0346002B17D100F07CFC48
:10030C00B8600D4B1B68BA68D31AFA689A420DD8BC
:10031C00094ABB68136000BF7B881946786800F0F7
:10032C0001FF0346002BF7D0012300E00023184601
:10033C001037BD4680BD00BF8C00002080B582B058
:10034C0000AF0346FB7100224FF48051094800F0C6
:10035C0000FFF91D4FF0FF330122074801F074FB39
:10036C0001224FF48051034800F0F3FE00BF083720
:10037C00BD4680BD000C01402C00002080B584B02F
:10038C0000AF0346FB71FB79632B23D8FB79134A2F
:10039C00A2FB0323DB08FB73FA79104BA3FB0213BC
:1003AC00D9080B469B000B445B00D31ABB73BB7B79
:1003BC000B4AD35C1846FFF7C1FF052000F026FC62
:1003CC00FB7B074AD35C1846FFF7B8FF052000F00B
:1003DC001DFC00E000BF1037BD4680BDCDCCCCCCA1
:1003EC00C01E000880B584B000AF0346FB71FB79DA
:1003FC00FB7317E000F000FCB860FB7B1846FFF7BE
:10040C00BDFF01E000F044F800F0F6FB0246BB68CB
:10041C00D31AB3F57A7FF5D397F90F30DBB2013BE2
:10042C00DBB2FB7397F90F30002BE3DA00BF00BF90
:10043C001037BD4680BD000080B500AF104B1B7857
:10044C00DBB2002B02D000F0F9F816E00D4B1B7854
:10045C00DBB2002B02D000F055F90EE00A4B1B78F2
:10046C00DBB2002B02D000F0B1F906E0074B1B7891
:10047C00DBB2002B01D000F0E7F900BF80BD00BF5C
:10048C00000000208500002086000020870000204E
:10049C0080B500AF20216248FFF720FF0346002BF8
:1004AC001ED0604B01221A705F4B00221A705F4BFA
:1004BC0000221A705E4B00221A705E4B00221A70DA
:1004CC005D4B00221A7001224FF40061544800F079
:1004DC0040FE00224FF47041514800F03AFE9CE07F
:1004EC0040214F48FFF7FAFE0346002B1ED04D4B20
:1004FC0000221A704C4B01221A704C4B00221A70BD
:10050C004B4B00221A704B4B00221A704A4B0022A4
:10051C001A7001224FF48051414800F01AFE00225B
:10052C004FF468413E4800F014FE76E080213C48D0
:10053C00FFF7D4FE0346002B1ED03A4B00221A7054
:10054C00394B00221A70394B01221A70384B002299
:10055C001A70384B00221A70374B00221A70012285
:10056C004FF400512E4800F0F4FD00224FF4584196
:10057C002B4800F0EEFD50E04FF480712848FFF757
:10058C00ADFE0346002B1ED0264B00221A70264BC4
:10059C0000221A70254B00221A70254B01221A706A
:1005AC00244B00221A70244B00221A7001224FF4A3
:1005BC0080411B4800F0CDFD00224FF43841184813
:1005CC0000F0C7FD29E04FF400711548FFF786FED7
:1005DC000346002B21D0134B00221A70124B002221
:1005EC001A70124B00221A70114B01221A70114B07
:1005FC0001221A70104B1B78DBB2DB43DAB20E4BC4
:10060C001A7001224FF40041054800F0A2FD0022AF
:10061C004FF4F041024800F09CFD00BF80BD00BFCC
:10062C00000C014000000020850000208600002006
:10063C0087000020880000208900002080B582B04F
:10064C0000AF2E4B00221A7000F0D6FA78600EE044
:10065C0001224FF480612A4800F07BFD00224FF408
:10066C004071274800F075FD1420FFF7BBFE00F029
:10067C00C3FA02467B68D31A44F61F629342E7D949
:10068C0000F0BAFA78600EE001224FF400711C48B9
:10069C0000F05FFD00224FF4A061194800F059FDF5
:1006AC000320FFF79FFE00F0A7FA02467B68D31ADF
:1006BC0040F6B7329342E7D900F09EFA78600EE02C
:1006CC0001224FF480710E4800F043FD00224FF4DC
:1006DC00C0610B4800F03DFD1E20FFF783FE00F0CB
:1006EC008BFA02467B68D31A47F22F529342E7D912
:1006FC0000BF00BF0837BD4680BD00BF840000208E
:10070C000008014080B582B000AF2D4B01221A7059
:10071C0000F072FA78600EE001224FF480612948F3
:10072C0000F017FD00224FF44071264800F011FD37
:10073C003C20FFF757FE00F05FFA02467B68D31AA5
:10074C004EF65F229342E7D900F056FA78600EE03D
:10075C0001224FF400711B4800F0FBFC00224FF407
:10076C00A061184800F0F5FC0520FFF73BFE00F0F7
:10077C0043FA02467B68D31A41F287329342E7D997
:10078C0000F03AFA78600EE001224FF480710D48C7
:10079C0000F0DFFC00224FF4C0610A4800F0D9FCE5
:1007AC004620FFF71FFE00F027FA02467B68D31A9B
:1007BC00054A9342E8D900BF00BF0837BD4680BD4B
:1007CC0084000020000801406F11010080B582B048
:1007DC0000AF1B4B03221A7000224FF4A061194882
:1007EC0000F0B7FC00F008FA786007E0FFF750FE65
:1007FC0001224FF40071134800F0ABFC00F0FCF93F
:10080C0002467B68D31AB3F5FA7FEFD300F0F4F904
:10081C00786007E0FFF73CFE00224FF400710948B6
:10082C0000F097FC00F0E8F902467B68D31AB3F5A8
:10083C00FA7FEFD300BF00BF0837BD4680BD00BFB5
:10084C00840000200008014080B582B000AF4C4B02
:10085C0002221A704B4B1B78DBB2002B22D14A4B75
:10086C001B78DBB2002B0ED1FFF712FE01224FF4E6
:10087C008061464800F06DFC00224FF44071434803
:10088C0000F067FC77E0FFF703FE01224FF4807164
:10089C003E4800F05EFC00224FF4C0613B4800F083
:1008AC0058FC68E0374B1B78DBB2012B63D1364B1D
:1008BC001B78DBB2002B1ED100F09EF93860314B57
:1008CC0000221A700EE001224FF480712F4800F0C4
:1008DC0040FC00224FF4C0612C4800F03AFC082088
:1008EC00FFF780FD00F088F902463B68D31AB3F598
:1008FC00FA5FE8D33FE0244B1B78DBB2002B3AD0F5
:10090C00204B00221A7000F077F978600EE001227B
:10091C004FF480611D4800F01CFC00224FF4407124
:10092C001A4800F016FC0520FFF75CFD00F064F996
:10093C0002467B68D31A41F287329342E7D900F022
:10094C005BF978600EE001224FF400710F4800F063
:10095C0000FC00224FF4A0610C4800F0FAFB0320CD
:10096C00FFF740FD00F048F902467B68D31A40F6C9
:10097C00B7329342E7D900BF0837BD4680BD00BFF0
:10098C00840000208800002089000020000801401D
:10099C0080B400AF72B600BF00BFFDE780B485B075
:1009AC0000AF154B9B69144A43F001039361124B42
:1009BC009B6903F00103BB60BB680F4BDB690E4AFC
:1009CC0043F08053D3610C4BDB6903F080537B60A5
:1009DC007B680A4B5B68FB60FB6823F0E063FB60A1
:1009EC00FB6843F00073FB60044AFB68536000BF74
:1009FC001437BD4680BC7047001002400000014017
:100A0C0080B588B000AF786007F1100300221A603F
:100A1C005A609A60DA607B681B681C4A934231D139
:100A2C001B4BDB691A4A43F48043D361184BDB69D7
:100A3C0003F48043FB60FB68154B9B69144A43F03D
:100A4C0008039361124B9B6903F00803BB60BB68FE
:100A5C004FF430433B6102237B610323FB6107F1BD
:100A6C00100319460B4800F0D9F94FF480433B6151
:100A7C0000237B610023BB6107F110031946054875
:100A8C0000F0CCF900BF2037BD4680BD00380040D7
:100A9C0000100240000C014080B400AF00BFFDE725
:100AAC0080B400AF00BFFDE780B400AF00BFFDE72E
:100ABC0080B400AF00BFFDE780B400AF00BFFDE71E
:100ACC0080B400AF00BFBD4680BC704780B400AF9F
:100ADC0000BFBD4680BC704780B400AF00BFBD46B0
:100AEC0080BC704780B500AF00F074F800BF80BDCB
:100AFC0080B400AF00BFBD4680BC7047FFF7F8FF65
:100B0C000B480C490C4A002302E0D458C45004335F
:100B1C00C4188C42F9D3094A094C002301E0136034
:100B2C000432A242FBD301F095F9FFF709FB7047A1
:100B3C000000002010000020F81E0008100000200B
:100B4C0094000020FEE7000080B500AF084B1B6846
:100B5C00074A43F010031360032000F02BF90F2019
:100B6C0000F008F8FFF71AFF0023184680BD00BFFD
:100B7C000020024080B582B000AF7860124B1A683A
:100B8C00124B1B7819464FF47A73B3FBF1F3B2FB9B
:100B9C00F3F3184600F035F90346002B01D001237E
:100BAC000EE07B680F2B0AD8002279684FF0FF30DB
:100BBC0000F00BF9064A7B681360002300E0012368
:100BCC0018460837BD4680BD040000200C000020EC
:100BDC000800002080B400AF054B1B781A46054B6B
:100BEC001B681344034A136000BFBD4680BC7047AA
:100BFC000C0000209000002080B400AF024B1B685A
:100C0C001846BD4680BC70479000002080B584B06B
:100C1C0000AF7860FFF7F0FFB8607B68FB60FB68A3
:100C2C00B3F1FF3F05D00A4B1B781A46FB681344FF
:100C3C00FB6000BFFFF7E0FF0246BB68D31AFA68FF
:100C4C009A42F7D800BF00BF1037BD4680BD00BF29
:100C5C000C00002080B485B000AF78607B6803F096
:100C6C000703FB600C4BDB68BB60BA684FF6FF03F5
:100C7C001340BB60FB681A02BB68134343F0BF63AD
:100C8C0043F40033BB60044ABB68D36000BF143725
:100C9C00BD4680BC704700BF00ED00E080B400AFE3
:100CAC00044BDB681B0A03F007031846BD4680BCE7
:100CBC00704700BF00ED00E080B483B000AF034686
:100CCC003960FB7197F90730002B0ADB3B68DAB20D
:100CDC000C4997F907301201D2B20B4483F8002368
:100CEC000AE03B68DAB20849FB7903F00F03043BD6
:100CFC001201D2B20B441A7600BF0C37BD4680BC31
:100D0C00704700BF00E100E000ED00E080B489B066
:100D1C0000AFF860B9607A60FB6803F00703FB6111
:100D2C00FB69C3F10703042B28BF0423BB61FB69D8
:100D3C000433062B02D9FB69033B00E000237B61E3
:100D4C004FF0FF32BB6902FA03F3DA43BB681A4077
:100D5C007B699A404FF0FF317B6901FA03F3D94369
:100D6C007B680B40134318462437BD4680BC704744
:100D7C0080B582B000AF78607B68013BB3F1807FB7
:100D8C0001D301230FE00A4A7B68013B53600F211A
:100D9C004FF0FF30FFF790FF054B00229A60044B99
:100DAC0007221A60002318460837BD4680BD00BFD5
:100DBC0010E000E080B582B000AF78607868FFF793
:100DCC0049FF00BF0837BD4680BD80B586B000AF77
:100DDC000346B9607A60FB7300237B61FFF75EFF0B
:100DEC0078617A68B9687869FFF790FF024697F9DD
:100DFC000F3011461846FFF75FFF00BF1837BD468E
:100E0C0080BD80B582B000AF78607868FFF7B0FF26
:100E1C00034618460837BD4680BD000080B48BB031
:100E2C0000AF7860396000237B6200233B6269E18C
:100E3C0001227B6A02FA03F3FB613B681B68FA69C7
:100E4C001340BB61BA69FB699A4240F058813B6818
:100E5C005B689A4A93425ED0984A934275D8984AF6
:100E6C00934258D0964A93426FD8964A934252D0A6
:100E7C00944A934269D8944A93424CD0924A9342F2
:100E8C0063D8924A934246D0904A93425DD8122B33
:100E9C002AD8122B59D801A252F823F0230F00089C
:100EAC00FD0E00080F0F0008510F0008570F000827
:100EBC00570F0008570F0008570F0008570F00086E
:100ECC00570F0008570F0008570F0008570F00085E
:100EDC00570F0008570F0008570F0008570F00084E
:100EEC00050F0008190F0008794A934213D02CE023
:100EFC003B68DB683B6229E03B68DB6804333B62A0
:100F0C0024E03B68DB6808333B621FE03B68DB682E
:100F1C000C333B621AE03B689B68002B02D1042324
:100F2C003B6213E03B689B68012B05D108233B62B5
:100F3C007B68FA691A6109E008233B627B68FA69ED
:100F4C005A6103E000233B6200E000BFBB69FF2B4A
:100F5C0001D87B6801E07B6804337B61BB69FF2BA4
:100F6C0002D87B6A9B0002E07B6A083B9B003B61DA
:100F7C007B691A680F213B6901FA03F3DB431A40C2
:100F8C00396A3B6901FA03F31A437B691A603B68BF
:100F9C005B6803F08053002B00F0B1804D4B9B69D4
:100FAC004C4A43F0010393614A4B9B6903F00103E4
:100FBC00BB60BB68484A7B6A9B08023352F82330FB
:100FCC00FB607B6A03F003039B000F2202FA03F31E
:100FDC00DB43FA681340FB607B68404A934213D0B2
:100FEC007B683F4A93420DD07B683E4A934207D0C0
:100FFC007B683D4A934201D1032306E0042304E0BD
:10100C00022302E0012300E000237A6A02F00302CB
:10101C0092009340FA681343FB602F497B6A9B084C
:10102C000233FA6841F823203B685B6803F48013B1
:10103C00002B06D02D4B9A682C49BB6913438B604F
:10104C0006E02A4B9A68BB69DB43284913408B6046
:10105C003B685B6803F40013002B06D0234BDA6863
:10106C002249BB691343CB6006E0204BDA68BB69AD
:10107C00DB431E491340CB603B685B6803F40033D1
:10108C00002B06D0194B5A681849BB6913434B60A7
:10109C0006E0164B5A68BB69DB43144913404B609E
:1010AC003B685B6803F48033002B21D00F4B1A682C
:1010BC000E49BB6913430B6021E000BF00003210E6
:1010CC00000031100000221000002110000012104E
:1010DC000000111000100240000001400008014007
:1010EC00000C0140001001400014014000040140BC
:1010FC000B4B1A68BB69DB43094913400B607B6AD5
:10110C0001337B623B681A687B6A22FA03F3002B7B
:10111C007FF48EAE00BF00BF2C37BD4680BC70473D
:10112C000004014080B485B000AF78600B467B8032
:10113C007B689A687B881340002B02D00123FB73D9
:10114C0001E00023FB73FB7B18461437BD4680BCC3
:10115C00704780B483B000AF78600B467B80134639
:10116C007B707B78002B03D07A887B681A6103E054
:10117C007B881A047B681A6100BF0C37BD4680BCA3
:10118C007047000080B586B000AF78607B68002B9C
:10119C0001D1012372E27B681B6803F00103002B71
:1011AC0000F08780924B5B6803F00C03042B0CD08F
:1011BC008F4B5B6803F00C03082B12D18C4B5B68D4
:1011CC0003F48033B3F5803F0BD1894B1B6803F4D8
:1011DC000033002B6CD07B685B68002B68D101233B
:1011EC004CE27B685B68B3F5803F06D1804B1B6893
:1011FC007F4A43F4803313602EE07B685B68002BDE
:10120C000CD17B4B1B687A4A23F480331360784BE8
:10121C001B68774A23F4802313601DE07B685B68AE
:10122C00B3F5A02F0CD1724B1B68714A43F4802389
:10123C0013606F4B1B686E4A43F4803313600BE0F2
:10124C006B4B1B686A4A23F480331360684B1B6832
:10125C00674A23F4802313607B685B68002B13D0F0
:10126C00FFF7CAFC386108E0FFF7C6FC02463B6991
:10127C00D31A642B01D9032300E25D4B1B6803F4E2
:10128C000033002BF0D014E0FFF7B6FC386108E017
:10129C00FFF7B2FC02463B69D31A642B01D9032336
:1012AC00ECE1534B1B6803F40033002BF0D100E04E
:1012BC0000BF7B681B6803F00203002B63D04C4B10
:1012CC005B6803F00C03002B0BD0494B5B6803F0FD
:1012DC000C03082B1CD1464B5B6803F48033002BAA
:1012EC0016D1434B1B6803F00203002B05D07B681F
:1012FC001B69012B01D00123C0E13D4B1B6823F07E
:10130C00F8027B685B69DB00394913430B603AE0F8
:10131C007B681B69002B20D0364B01221A60FFF72B
:10132C006BFC386108E0FFF767FC02463B69D31A97
:10133C00022B01D90323A1E12D4B1B6803F00203FF
:10134C00002BF0D02A4B1B6823F0F8027B685B69FA
:10135C00DB00274913430B6015E0264B00221A6073
:10136C00FFF74AFC386108E0FFF746FC02463B6990
:10137C00D31A022B01D9032380E11D4B1B6803F008
:10138C000203002BF0D17B681B6803F00803002BD1
:10139C003AD07B689B69002B19D0174B01221A603D
:1013AC00FFF72AFC386108E0FFF726FC02463B6990
:1013BC00D31A022B01D9032360E10D4B5B6A03F0B6
:1013CC000203002BF0D0012000F09CFA1CE00A4B29
:1013DC0000221A60FFF710FC38610FE0FFF70CFCDD
:1013EC0002463B69D31A022B08D9032346E100BFFE
:1013FC00001002400000424280044242924B5B6A61
:10140C0003F00203002BE9D17B681B6803F0040393
:10141C00002B00F0A6800023FB758B4BDB6903F0DF
:10142C008053002B0DD1884BDB69874A43F08053E6
:10143C00D361854BDB6903F08053BB60BB68012330
:10144C00FB75824B1B6803F48073002B18D17F4B08
:10145C001B687E4A43F480731360FFF7CDFB386141
:10146C0008E0FFF7C9FB02463B69D31A642B01D98C
:10147C00032303E1754B1B6803F48073002BF0D03E
:10148C007B68DB68012B06D16F4B1B6A6E4A43F0FD
:10149C00010313622DE07B68DB68002B0CD16A4BD7
:1014AC001B6A694A23F001031362674B1B6A664A85
:1014BC0023F0040313621CE07B68DB68052B0CD162
:1014CC00614B1B6A604A43F0040313625E4B1B6A58
:1014DC005D4A43F0010313620BE05B4B1B6A5A4AF3
:1014EC0023F001031362584B1B6A574A23F0040381
:1014FC0013627B68DB68002B15D0FFF77DFB38612E
:10150C000AE0FFF779FB02463B69D31A41F28832B5
:10151C00934201D90323B1E04B4B1B6A03F0020346
:10152C00002BEED014E0FFF767FB38610AE0FFF701
:10153C0063FB02463B69D31A41F28832934201D9CC
:10154C0003239BE0404B1B6A03F00203002BEED1FC
:10155C00FB7D012B05D13C4BDB693B4A23F08053CF
:10156C00D3617B68DB69002B00F08780364B5B68AE
:10157C0003F00C03082B61D07B68DB69022B46D18E
:10158C00334B00221A60FFF737FB386108E0FFF796
:10159C0033FB02463B69D31A022B01D903236DE0BE
:1015AC00294B1B6803F00073002BF0D17B681B6A7E
:1015BC00B3F5803F08D1244B5B6823F400327B6881
:1015CC009B68214913434B601F4B5B6823F47412D7
:1015DC007B68196A7B685B6A0B431B4913434B603E
:1015EC001B4B01221A60FFF707FB386108E0FFF77D
:1015FC0003FB02463B69D31A022B01D903233DE0BE
:10160C00114B1B6803F00073002BF0D035E0104B2E
:10161C0000221A60FFF7F0FA386108E0FFF7ECFAE5
:10162C0002463B69D31A022B01D9032326E0064B51
:10163C001B6803F00073002BF0D11EE07B68DB69A4
:10164C00012B07D1012319E000100240007000406B
:10165C00600042420B4B5B68FB60FB6803F480321A
:10166C007B681B6A9A4206D1FB6803F470127B6894
:10167C005B6A9A4201D0012300E000231846183718
:10168C00BD4680BD0010024080B584B000AF7860CC
:10169C0039607B68002B01D10123D0E06A4B1B68B9
:1016AC0003F007033A689A4210D9674B1B6823F082
:1016BC00070265493B6813430B60634B1B6803F0DF
:1016CC0007033A689A4201D00123B8E07B681B6893
:1016DC0003F00203002B20D07B681B6803F004038B
:1016EC00002B05D0594B5B68584A43F4E0635360B8
:1016FC007B681B6803F00803002B05D0534B5B6819
:10170C00524A43F460535360504B5B6823F0F00231
:10171C007B689B684D4913434B607B681B6803F0E7
:10172C000103002B40D07B685B68012B07D1474B32
:10173C001B6803F40033002B15D101237FE07B6879
:10174C005B68022B07D1414B1B6803F00073002B25
:10175C0009D1012373E03D4B1B6803F00203002BFE
:10176C0001D101236BE0394B5B6823F003027B68EA
:10177C005B68364913434B60FFF73EFAF8600AE0AA
:10178C00FFF73AFA0246FB68D31A41F288329342C9
:10179C0001D9032353E02D4B5B6803F00C027B68EB
:1017AC005B689B009A42EBD1274B1B6803F0070345
:1017BC003A689A4210D2244B1B6823F00702224944
:1017CC003B6813430B60204B1B6803F007033A681C
:1017DC009A4201D0012332E07B681B6803F00403BA
:1017EC00002B08D0194B5B6823F4E0627B68DB6844
:1017FC00164913434B607B681B6803F00803002BEE
:10180C0009D0124B5B6823F460527B681B69DB00C8
:10181C000E4913434B6000F021F802460B4B5B68FA
:10182C001B0903F00F030A49CB5C22FA03F3094AA4
:10183C001360094B1B681846FFF79CF900231846E8
:10184C001037BD4680BD00BF002002400010024092
:10185C00CC1E0008040000200800002080B487B0D3
:10186C0000AF0023FB600023BB6000237B610023DF
:10187C007B6000233B611E4B5B68FB60FB6803F0E5
:10188C000C03042B02D0082B03D027E0194B3B612F
:10189C0027E0FB689B0C03F00F03174AD35C7B60BB
:1018AC00FB6803F48033002B10D0114B5B685B0C8E
:1018BC0003F00103114AD35CBB607B680D4A03FB48
:1018CC0002F2BB68B2FBF3F37B6104E07B680C4A69
:1018DC0002FB03F37B617B693B6102E0054B3B61DF
:1018EC0000BF3B6918461C37BD4680BC704700BF23
:1018FC000010024000127A00DC1E0008EC1E0008EA
:10190C0000093D0080B485B000AF78600A4B1B68BD
:10191C000A4AA2FB03235B0A7A6802FB03F3FB600F
:10192C0000BFFB685A1EFA60002BF9D100BF00BF44
:10193C001437BD4680BC704704000020D34D6210A4
:10194C0080B582B000AF78607B68002B01D1012399
:10195C0076E07B685B6A002B08D17B685B68B3F52B
:10196C00827F09D07B680022DA6105E07B68002267
:10197C001A617B6800225A617B6800229A627B683C
:10198C0093F85130DBB2002B06D17B68002283F830
:10199C0050207868FFF734F87B68022283F85120D6
:1019AC007B681B681A687B681B6822F040021A600F
:1019BC007B685B6803F482727B689B6803F4044366
:1019CC001A437B68DB6803F400631A437B681B696A
:1019DC0003F002031A437B685B6903F001031A43AB
:1019EC007B689B6903F400731A437B68DB6903F023
:1019FC0038031A437B681B6A03F0800342EA030135
:101A0C007B689B6A03F400527B681B680A431A606C
:101A1C007B689B691A0C7B681B6802F004025A6095
:101A2C007B681B68DA697B681B6822F40062DA61E8
:101A3C007B6800225A657B68012283F851200023C1
:101A4C0018460837BD4680BD80B588B000AFF86039
:101A5C00B9603B601346FB80FFF7CEF8F861FB885A
:101A6C007B83FB6893F85130DBB2012B01D002234E
:101A7C002AE1BB68002B02D0FB88002B01D101238B
:101A8C0022E1FB6893F85030012B01D102231BE1BA
:101A9C00FB68012283F85020FB68032283F8512055
:101AAC00FB6800225A65FB68BA681A63FB68FA88FF
:101ABC009A86FB68FA88DA86FB6800229A63FB68D0
:101ACC0000229A87FB680022DA87FB6800225A649E
:101ADC00FB6800221A64FB689B68B3F5004F0FD1BA
:101AEC00FB681B681A68FB681B6822F040021A60CE
:101AFC00FB681B681A68FB681B6842F480421A601A
:101B0C00FB681B681B6803F04003402B07D0FB6885
:101B1C001B681A68FB681B6842F040021A60FB687D
:101B2C00DB68B3F5006F52D1FB685B68002B02D009
:101B3C007B8B012B45D1FB681B6B1A88FB681B68E0
:101B4C00DA60FB681B6B9A1CFB681A63FB68DB8E04
:101B5C009BB2013B9AB2FB68DA8632E0FB681B68E9
:101B6C009B6803F00203022B12D1FB681B6B1A88D3
:101B7C00FB681B68DA60FB681B6B9A1CFB681A63BA
:101B8C00FB68DB8E9BB2013B9AB2FB68DA8618E0ED
:101B9C00FFF732F80246FB69D31A3A689A4203D827
:101BAC003B68B3F1FF3F02D13B68002B09D1FB68C6
:101BBC00012283F85120FB68002283F85020032374
:101BCC0082E0FB68DB8E9BB2002BC7D153E0FB6835
:101BDC005B68002B02D07B8B012B47D1FB681A6B07
:101BEC00FB681B680C3312781A70FB681B6B5A1C51
:101BFC00FB681A63FB68DB8E9BB2013B9AB2FB68F5
:101C0C00DA8633E0FB681B689B6803F00203022B47
:101C1C0013D1FB681A6BFB681B680C3312781A70B3
:101C2C00FB681B6B5A1CFB681A63FB68DB8E9BB250
:101C3C00013B9AB2FB68DA8618E0FEF7DDFF02463C
:101C4C00FB69D31A3A689A4203D83B68B3F1FF3F59
:101C5C0002D13B68002B09D1FB68012283F851208B
:101C6C00FB68002283F8502003232DE0FB68DB8EF9
:101C7C009BB2002BC6D1FA693968F86800F0B0F84D
:101C8C000346002B02D0FB6820225A65FB689B6838
:101C9C00002B0AD100237B61FB681B68DB687B612E
:101CAC00FB681B689B687B617B69FB68012283F87E
:101CBC005120FB68002283F85020FB685B6D002BE1
:101CCC0001D0012300E0002318462037BD4680BD1B
:101CDC0080B588B000AFF860B9603B601346FB710B
:101CEC00FEF78AFF0246BB6A9B1A3A681344FB61F3
:101CFC00FEF782FFB861394B1B685B011B0DFA695B
:101D0C0002FB03F37B6154E03B68B3F1FF3F50D01F
:101D1C00FEF772FF0246BB69D31AFA699A4202D9DE
:101D2C00FB69002B3DD1FB681B685A68FB681B687C
:101D3C0022F0E0025A60FB685B68B3F5827F11D138
:101D4C00FB689B68B3F5004F04D0FB689B68B3F548
:101D5C00806F07D1FB681B681A68FB681B6822F050
:101D6C0040021A60FB689B6AB3F5005F0FD1FB68F9
:101D7C001B681A68FB681B6822F400521A60FB6827
:101D8C001B681A68FB681B6842F400521A60FB68F7
:101D9C00012283F85120FB68002283F85020032392
:101DAC0017E07B69002B01D10023FB617B69013BB0
:101DBC007B61FB681B689A68BB681340BA689A42DF
:101DCC000CBF01230023DBB21A46FB799A429BD14C
:101DDC00002318462037BD4680BD00BF04000020FC
:101DEC0080B586B002AFF860B9607A607B6800930A
:101DFC00BB6801220221F868FFF76AFF0346002B3B
:101E0C0007D0FB685B6D43F02002FB685A65032327
:101E1C0013E07B680093BB6800228021F868FFF711
:101E2C0057FF0346002B07D0FB685B6D43F0200285
:101E3C00FB685A65032300E0002318461037BD46A3
:101E4C0080BD03460244934200D1704703F8011B46
:101E5C00F9E7000070B500260C4D0D4C641BA41066
:101E6C00A64209D100F01AF800260A4D0A4C641B50
:101E7C00A410A64205D170BD55F8043B9847013615
:101E8C00EEE755F8043B98470136F2E7F01E0008E0
:101E9C00F01E0008F01E0008F41E0008F8B500BF84
:101EAC00F8BC08BC9E467047F8B500BFF8BC08BC2F
:041EBC009E46704787
:101EC000C0F9A4B0999282F8809000000000000050
:101ED00000000000010203040607080902030405CC
:101EE000060708090A0B0C0D0E0F10100102000066
:041EF00031010008B4
:041EF4000D010008D4
:101EF8000100000000127A0010000000010000003C
:0400000508000B09DB
:00000001FF
